:020000040800F2
:1000000000500020F51900087D1500088315000830
:10001000891500088F1500089515000800000000DC
:100020000000000000000000000000009B15000818
:10003000A715000800000000B3150008BF15000850
:100040003D1A00083D1A00083D1A00083D1A000834
:100050003D1A00083D1A00083D1A00083D1A000824
:100060003D1A00083D1A00083D1A00083D1A000814
:100070003D1A00083D1A00083D1A00083D1A000804
:100080003D1A00083D1A00083D1A00083D1A0008F4
:100090003D1A00083D1A00083D1A00083D1A0008E4
:1000A0003D1A00083D1A00083D1A00083D1A0008D4
:1000B000CD1500083D1A00083D1A00083D1A000839
:1000C0003D1A00083D1A00083D1A00083D1A0008B4
:1000D0003D1A00083D1A00083D1A00083D1A0008A4
:1000E000E11500083D1A00083D1A00080000000054
:1000F0000000000000000000000000000000000000
:0C01000000000000000000005FF808F1A3
:10010C0010B5054C237833B9044B13B10448AFF345
:10011C0000800123237010BDF400002000000000BB
:10012C005045000808B5034B1BB103490348AFF316
:10013C00008008BD00000000F800002050450008B9
:10014C0080B400AF064BDB68012B04D1044B0022BA
:10015C00DA60012300E000231846BD4680BC7047DE
:10016C002001002080B400AF064B1B68012B04D18A
:10017C00044B00221A60012300E000231846BD4600
:10018C0080BC70472001002080B400AF064B5B6838
:10019C00012B04D1044B00225A60012300E0002300
:1001AC001846BD4680BC70472001002080B400AFCB
:1001BC00064B9B68012B04D1044B00229A6001234F
:1001CC0000E000231846BD4680BC7047200100208B
:1001DC0080B582B000AF00237B6012E06C4A7B6874
:1001EC0052F823206B497B6841F823206A4A7B68CC
:1001FC0052F8232066497B6841F823207B68013341
:10020C007B607B68032BE9DD0121644801F02AFF48
:10021C0003461A46604B1A601021604801F022FF19
:10022C0003461A465C4B5A6001215D4801F01AFFE7
:10023C0003461A46584B9A600221584801F012FFA7
:10024C0003461A46544BDA6000233B6096E0504A52
:10025C003B6852F8232050493B6851F823309A42AE
:10026C0040F089804A4A3B6852F8232049493B6850
:10027C0051F823309A427ED1464A3B6852F82320EB
:10028C0048493B6851F823309A422ED0414A3B688A
:10029C0052F8232043493B6841F82320414A3B68EC
:1002AC0052F82330002B15D13F4A3B684FF4FA71BA
:1002BC0042F823103D4A3B68002142F823103C4A87
:1002CC003B68192142F823103A4A3B68012142F855
:1002DC00231050E0354A3B68002142F82310344A81
:1002EC003B68192142F8231045E02E4A3B6852F82E
:1002FC002330002B3FD12D4A3B6852F82330632B1F
:10030C0014DC2A4A3B6852F823305A1C27493B68B4
:10031C0041F82320254A3B6852F82330642B2AD11C
:10032C00234A3B68002142F8231024E0204A3B6812
:10033C0052F82330002B08DD1D4A3B6852F823305D
:10034C005A1E1B493B6841F82320194A3B6852F856
:10035C002330002B0FD1164A3B68192142F8231089
:10036C003B68012B02D03B68022B04D1114A3B683D
:10037C00012142F823103B6801333B603B68032B9F
:10038C007FF765AF00BF00BF0837BD4680BD00BF1B
:10039C001000002020000020000000200008014078
:1003AC00000C014030000020500000201001002003
:1003BC00400000202001002080B582B000AF7860A2
:1003CC00112279680F4803F07FFC0346002B15D0EF
:1003DC00102279680B4803F089FC0A4B00221A742E
:1003EC000021002000F06CFF074800F086FF002180
:1003FC00002000F065FF034800F07FFF00BF0837C6
:10040C00BD4680BD300100206845000880B58CB029
:10041C0002AF786039607B6823EAE3737B623B68E8
:10042C0023EAE3733B62144B1B687A6A9A4204D149
:10043C00124B1B683A6A9A421AD00F4A7B6A1360B5
:10044C000E4A3B6A136007F10C003B6A00937B6A0F
:10045C000B4A112103F004FC00233B7700210120FF
:10046C0000F02EFF07F10C03184600F046FF00E0E9
:10047C0000BF2837BD4680BD60000020640000200E
:10048C007C45000880B500AF8F4B1B68013B042BEB
:10049C0000F2048201A252F823F000BFBD04000850
:1004AC003B050008FD05000815070008D5070008E6
:1004BC00864B1B68864A82FB03129211DB17D31AF8
:1004CC00844A1360844B1B68814A82FB031292118D
:1004DC00DB17D31A814A136001F080F900F0E6FEB5
:1004EC00112200217E4803F0B3FB7E4B4FF0FF320C
:1004FC001A607D4B4FF0FF321A607C48FFF75CFFAF
:10050C00744B1B68754A126811461846FFF77EFF3C
:10051C006D4B02221A60704B1B681946012000F0CB
:10052C00A5FF4FF47A71022000F0A0FFBFE17048E4
:10053C00FFF742FF674B1B68684A12681146184662
:10054C00FFF764FF01F054F96A4B9B68012B0ED145
:10055C00604B1B68013B5F4A1360604B1B68013B9F
:10056C005E4A13604FF47A71022000F07FFF614BFA
:10057C005B68012B12D1544B03221A605E4B1B6833
:10058C001946012000F072FF5B4B1B68504A82FB3E
:10059C0003129211DB17D31A504A1360FFF7E2FDD6
:1005AC000346012B0ED1484B0A221A60534B0222F0
:1005BC001A604A4B1A68474B1B689342A8BF1346F4
:1005CC004F4A1360FFF7BCFD0346012B40F06881D6
:1005DC004A4B02221A60414B1A683E4B1B689342ED
:1005EC00A8BF1346464A1360374B13221A6057E1D3
:1005FC004448FFF7E1FE374B1B68384A1268114636
:10060C001846FFF703FF01F0FDF83A4B9B68012BEE
:10061C000ED1304B1B68013B2E4A13602F4B1B68CD
:10062C00013B2E4A13604FF47A71022000F01EFF3A
:10063C00304B5B68012B1CD1234B04221A60264BD8
:10064C001B681946012000F011FF234B1B68204A40
:10065C0082FB03129211DB17D31A1E4A13601B4B39
:10066C001B681B4A82FB03129211DB17D31A1B4A1D
:10067C001360FFF777FD0346012B0ED1124B0B22B3
:10068C001A601E4B03221A60144B1A68114B1B681C
:10069C009342A8BF13461A4A1360FFF751FD034655
:1006AC00012B40F0FF80154B02221A600B4B1A688D
:1006BC00084B1B689342A8BF1346114A1360024BA8
:1006CC0013221A60EEE000BF7000002074000020BE
:1006DC00D34D62108C0100207C0000209001002082
:1006EC0030010020600000206400002090450008CC
:1006FC009C4500081C02002078000020800000208F
:10070C0070010020A84500086A48FFF755FE6A4BA7
:10071C001B686A4A126811461846FFF777FE01F00B
:10072C007BF8674B9B68012B0ED1634B1B68013B1D
:10073C00614A1360614B1B68013B604A13604FF4C4
:10074C007A71022000F092FE5D4B5B68012B12D196
:10075C005C4B05221A605C4B1B681946012000F0AB
:10076C0085FE594B1B68594A82FB03129211DB1709
:10077C00D31A514A1360FFF7F5FC0346012B0ED137
:10078C00504B0C221A60524B04221A604B4B1A68C5
:10079C00494B1B689342A8BF13464E4A1360FFF7A0
:1007AC00CFFC0346012B7FD1494B02221A60434BED
:1007BC001A68414B1B689342A8BF1346454A136005
:1007CC00404B13221A606FE04348FFF7F5FD3A4B9C
:1007DC001B683A4A126811461846FFF717FE01F0DB
:1007EC0025F8374B9B68012B0ED1334B1B68013B13
:1007FC00314A1360314B1B68013B304A13604FF494
:10080C007A71022000F032FE2D4B5B68012B1CD15B
:10081C002C4B02221A60314B1B681946012000F048
:10082C0025FE2E4B1B68294A82FB03129211DB1703
:10083C00D31A224A13602A4B1B68244A82FB0312E8
:10084C009211DB17D31A1C4A1360FFF78BFC03467B
:10085C00012B0ED11B4B0D221A601D4B05221A6069
:10086C00164B1A68144B1B689342A8BF1346194ABF
:10087C001360FFF765FC0346012B17D1144B0222C2
:10088C001A600E4B1A680C4B1B689342A8BF134698
:10089C00104A13600B4B13221A6007E000BF06E0EE
:1008AC0000BF04E000BF02E000BF00E000BF00BFDB
:1008BC0080BD00BFB44500088C01002090010020D1
:1008CC001C0200207000002078000020D34D621024
:1008DC008000002070010020C04500087C00002032
:1008EC007400002080B582B000AF78601122796866
:1008FC00134803F0E9F90346002B1CD01022796849
:10090C000F4803F0F3F90E4B00221A74002100205B
:10091C0000F0D6FC0B4800F0F0FC0021002000F0A9
:10092C00CFFC074800F0E9FC0021012000F0C8FCD6
:10093C00054800F0E2FC00BF0837BD4680BD00BF93
:10094C0044010020CC450008E045000880B500AF0C
:10095C00504B1B680A3B032B00F2908001A252F80B
:10096C0023F000BF81090008C3090008050A00082C
:10097C00470A00084848FFF7B5FF00F039FFFFF7BA
:10098C00F1FB0346012B02D1424B0B221A60FFF7FD
:10099C00D7FB0346012B73D1404B1B683D4A1360B8
:1009AC003F4B1B684FF47A7202FB03F3194601208C
:1009BC0000F05CFD64E03B48FFF794FF00F022FF81
:1009CC00FFF7D0FB0346012B02D1324B0C221A60ED
:1009DC00FFF7B6FB0346012B54D1304B1B682D4A55
:1009EC0013602F4B1B684FF47A7202FB03F319460A
:1009FC00012000F03BFD45E02B48FFF773FF00F0B2
:100A0C000BFFFFF7AFFB0346012B02D1214B0D224D
:100A1C001A60FFF795FB0346012B35D11F4B1B6862
:100A2C001C4A13601E4B1B684FF47A7202FB03F3D3
:100A3C001946012000F01AFD26E01C48FFF752FF72
:100A4C0000F0F4FEFFF78EFB0346012B02D1114B95
:100A5C000A221A60FFF774FB0346012B16D10F4BC9
:100A6C001B680C4A13600E4B1B684FF47A7202FB26
:100A7C0003F31946012000F0F9FC07E000BF06E083
:100A8C0000BF04E000BF02E000BF00E000BF00BFF9
:100A9C0080BD00BF70000020F045000880000020E1
:100AAC0070010020FC4500080846000814460008A8
:100ABC0080B588B000AF786039603B6823EAE37397
:100ACC00FB61112279681D4803F0FEF80346002BE8
:100ADC0015D010227968194803F008F9174B002239
:100AEC001A740021002000F0EBFB154800F005FC07
:100AFC000021002000F0E4FB104800F0FEFB114B3D
:100B0C001B68FA699A4214D00E4AFB69136007F10C
:100B1C000800FB690C4A112103F0A2F800233B7674
:100B2C000021012000F0CCFB07F10803184600F06F
:100B3C00E4FB00BF2037BD4680BD00BF5C01002038
:100B4C00204600086C0000203446000880B500AF39
:100B5C00904B1B68133B032B00F2CE8101A252F881
:100B6C0023F000BF810B0008C30B0008B10C000878
:100B7C00E50D000800F032FEFA21002000F076FCB2
:100B8C00844B14221A60844B1B68844A82FB031228
:100B9C009211DB17D31A824A1360824B00221A700F
:100BAC00814B4FF0FF321A607D4B1B6819467F4812
:100BBC00FFF77EFFA7E17A4B1B6819467B48FFF7CE
:100BCC0077FFFFF7E1FA0346012B11D1744B1B6839
:100BDC000133734A1360724B1B68632B02DD704B3D
:100BEC0000221A606E4B1B6819467048FFF760FFB5
:100BFC00FFF7DCFA0346012B0ED1694B1B68002B67
:100C0C0004DD674B1B68013B654A1360644B1B6832
:100C1C0019466648FFF74CFFFFF7A4FA0346012B71
:100C2C0009D1634B1B681946012000F01FFC614B76
:100C3C001B68584A1360604B1B68012B0ED1FA21BC
:100C4C00002000F013FC00F0FBFD5C4B1B68012B3B
:100C5C0001D1022300E00123584A1360FFF770FA18
:100C6C000346002B00F04A8100F0B8FDFA21002069
:100C7C0000F0FCFB4A4B1B68514A1360514B1B683C
:100C8C00464A82FB03129211DB17D31A444A1360B3
:100C9C00434B1B6819464C48FFF70AFF3D4B152286
:100CAC001A602BE13E4B1B6819464748FFF700FFC3
:100CBC00FFF76AFA0346012B11D1394B1B6801333C
:100CCC00374A1360364B1B68632B02DD344B002212
:100CDC001A60334B1B6819463B48FFF7E9FEFFF7D8
:100CEC0065FA0346012B0ED12D4B1B68002B04DD3E
:100CFC002B4B1B68013B2A4A1360294B1B68194676
:100D0C003148FFF7D5FEFFF72DFA0346012B09D129
:100D1C00274B1B681946012000F0A8FB254B1B68CC
:100D2C001C4A1360244B1B68012B0ED1FA210020A6
:100D3C0000F09CFB00F0A8FD204B1B68012B01D19F
:100D4C00022300E001231D4A1360FFF7F9F9034663
:100D5C00002B00F0D58000F041FDFA21002000F0BE
:100D6C0085FB0F4B1B68194A1360194B1B680B4A08
:100D7C0082FB03129211DB17D31A094A1360084B3A
:100D8C001B6819461348FFF793FE024B16221A6094
:100D9C00B6E000BF7000002074000020D34D62103C
:100DAC00580100205C0100206C000020484600081F
:100DBC0070010020800000201C0200206800002030
:100DCC009801002078000020504600089401002073
:100DDC007C000020584600084C4B1B6819464C48B8
:100DEC00FFF766FEFFF7D0F90346012B11D1474BF5
:100DFC001B680133454A1360444B1B68632B02DDAF
:100E0C00424B00221A60414B1B6819464048FFF7C1
:100E1C004FFEFFF7CBF90346012B0ED13B4B1B6862
:100E2C00002B04DD394B1B68013B384A1360374BF0
:100E3C001B6819463648FFF73BFEFFF793F903464C
:100E4C00012B09D1334B1B681946012000F00EFB16
:100E5C00314B1B68314A1360314B1B68012B0ED18F
:100E6C00FA21002000F002FB00F032FD2D4B1B6834
:100E7C00012B01D1022300E001232A4A1360FFF762
:100E8C005FF90346002B3DD0FA21002000F0EEFA6A
:100E9C001E4B1B68244A13601C4B00221A60224B09
:100EAC001B68002B24DD214B1B68002B20DD1E4B07
:100EBC001A681E4B1B681A441D4B1B689A4217D1AB
:100ECC001B4B1B684FF47A7202FB03F3194A136035
:100EDC00154B1B684FF47A7202FB03F3164A13602E
:100EEC00124B1B684FF47A7202FB03F3134A136024
:100EFC000A4B01221A6005E000BF04E000BF02E0CB
:100F0C0000BF00E000BF00BF80BD00BF5801002043
:100F1C00584600087001002080000020700000205E
:100F2C001C020020680000209C010020940100207D
:100F3C0098010020740000207C0000207800002024
:100F4C0080B588B000AF07F1100300221A605A6018
:100F5C009A60DA60454B9B69444A43F010039361F5
:100F6C00424B9B6903F01003FB60FB683F4B9B6992
:100F7C003E4A43F0200393613C4B9B6903F02003F2
:100F8C00BB60BB68394B9B69384A43F004039361DF
:100F9C00364B9B6903F004037B607B68334B9B6986
:100FAC00324A43F008039361304B9B6903F008030A
:100FBC003B603B6800224FF448712D4801F069F802
:100FCC0000224FF482612B4801F063F84FF4005378
:100FDC003B61294B7B610023BB6107F11003194670
:100FEC00264800F0BBFE13233B6100237B610123E9
:100FFC00BB6107F1100319461D4800F0AFFE4FF41A
:10100C0048733B6101237B610023BB610223FB61BD
:10101C0007F110031946164800F0A0FE01233B61AE
:10102C0000237B610123BB6107F1100319461148B2
:10103C0000F094FE4FF482633B6101237B6100233B
:10104C00BB610223FB6107F110031946094800F04C
:10105C0085FE00220021282000F049FE282000F007
:10106C0062FE00BF2037BD4680BD00BF00100240AD
:10107C0000080140000C014000001110001001405C
:10108C0080B500AF124B134A1A60114B124A5A60CA
:10109C000F4B00229A600E4B0022DA600C4B4FF47F
:1010AC0080421A610A4B00225A61094B00229A6154
:1010BC00074B0022DA61064B00221A62044801F049
:1010CC0023F80346002B01D000F0CBF900BF80BD04
:1010DC00A001002000540040A086010080B588B01B
:1010EC0000AF786007F1100300221A605A609A6012
:1010FC00DA607B681B68154A934223D1144B9B69B9
:10110C00134A43F008039361114B9B6903F00803E6
:10111C00FB60FB68C0233B6112237B610323FB61F3
:10112C0007F1100319460B4800F018FE084BDB6959
:10113C00074A43F40013D361054BDB6903F4001336
:10114C00BB60BB6800BF2037BD4680BD005400406B
:10115C0000100240000C014080B500AF322000F0BE
:10116C00CBFC302000F036F8052000F0C5FC302018
:10117C0000F030F8012000F0BFFC302000F02AF81D
:10118C000A2000F0B9FC202000F024F80A2000F01E
:10119C00B3FC282000F01EF8012000F0ADFC082064
:1011AC0000F018F8012000F0A7FC012000F012F864
:1011BC00022000F0A1FC062000F00CF8012000F049
:1011CC009BFC0C2000F006F8012000F095FC00BF01
:1011DC0080BD000080B586B002AF0346FB71FB7981
:1011EC0023F00F03FB73FB791B01BB73FB7B43F0F9
:1011FC000C03DBB23B72FB7B43F00803DBB27B726C
:10120C00BB7B43F00C03DBB2BB72BB7B43F008032C
:10121C00DBB2FB7207F108024FF0FF33009304239B
:10122C004E21064801F0B4F80346002B01D00123EF
:10123C0000E0002318461037BD4680BDA0010020F9
:10124C0080B586B002AF0346FB71FB7923F00F0328
:10125C00FB73FB791B01BB73FB7B43F00D03DBB210
:10126C003B72FB7B43F00903DBB27B72BB7B43F02D
:10127C000D03DBB2BB72BB7B43F00903DBB2FB7229
:10128C0007F108024FF0FF33009304234E21064868
:10129C0001F07EF80346002B01D0012300E000236F
:1012AC0018461037BD4680BDA001002080B500AFA8
:1012BC000120FFF78FFF322000F01EFC00BF80BD25
:1012CC0080B582B000AF786039607B68002B04D1A8
:1012DC003B6843F080033B6006E07B68012B03D145
:1012EC003B6843F0C0033B603B68DBB21846FFF73A
:1012FC0071FF00BF0837BD4680BD80B582B000AF1E
:10130C00786006E07B685A1C7A601B781846FFF7F9
:10131C0097FF7B681B78002BF4D100BF00BF083708
:10132C00BD4680BD80B500AF00F084FB00F04CF8EA
:10133C00FFF706FE00F0F0FAFFF7A2FE00F08EF9C0
:10134C001B4801F0DBFFFFF707FF00210020FFF730
:10135C00B7FF1848FFF7D1FF00210120FFF7B0FFBE
:10136C001548FFF7CAFF40F6B83000F0C5FB012264
:10137C004FF48061114800F08CFE012210210F48BF
:10138C0000F087FE01224FF400710D4800F081FE41
:10139C0001224FF480710A4800F07BFE094B0122B8
:1013AC001A60FFF76FF8FFF7D1FBFFF7CFFAF8E7FA
:1013BC00440200206046000870460008000C014002
:1013CC00000801407000002080B590B000AF07F11C
:1013DC00180328220021184602F03AFC3B1D00227B
:1013EC001A605A609A60DA601A610223BB610123A9
:1013FC00BB621023FB6202237B630023BB634FF4AD
:10140C000023FB6307F11803184601F019FB034690
:10141C00002B01D000F025F80F237B600223BB606A
:10142C000023FB604FF480633B6100237B613B1D19
:10143C000021184601F084FD0346002B01D000F07A
:10144C0010F800BF4037BD4680BD80B582B000AFFC
:10145C00786000F02BF8FEF7BBFE00BF0837BD46E6
:10146C0080BD80B400AF72B600BFFEE780B483B01D
:10147C0000AF786039600A4A7B68002142F823107B
:10148C003B68084A82FB03129210DB17D21A0649FA
:10149C007B6841F8232000BF0C37BD4680BC7047E9
:1014AC001C02002067666666F401002080B483B0DD
:1014BC0000AF00237B601CE0124A7B6852F823309B
:1014CC00002B08DD0F4A7B6852F823305A1E0D4959
:1014DC007B6841F823200B4A7B6852F82330002BA1
:1014EC0004DC094A7B68012142F823107B68013334
:1014FC007B607B68092BDFDD00BF00BF0C37BD466E
:10150C0080BC7047F40100201C02002080B485B020
:10151C0000AF154B9B69144A43F001039361124BC6
:10152C009B6903F00103BB60BB680F4BDB690E4A80
:10153C0043F08053D3610C4BDB6903F080537B6029
:10154C007B680A4B5B68FB60FB6823F0E063FB6025
:10155C00FB6843F00073FB60044AFB68536000BFF8
:10156C001437BD4680BC704700100240000001409B
:10157C0080B400AFFEE780B400AFFEE780B400AFEC
:10158C00FEE780B400AFFEE780B400AFFEE780B4A6
:10159C0000AF00BFBD4680BC704780B400AF00BF39
:1015AC00BD4680BC704780B400AF00BFBD4680BC58
:1015BC00704780B500AF00F083FA00BF80BD00001B
:1015CC0080B500AF024801F0EBFE00BF80BD00BF4C
:1015DC004402002080B500AF4FF4005000F072FDC3
:1015EC0000BF80BD80B586B000AF7860144A154B43
:1015FC00D31A7B617B693B61134B1B68002B02D1B7
:10160C00114B124A1A60104B1A687B6813443A69E2
:10161C009A4207D202F0F2FA03460C221A604FF0FB
:10162C00FF3309E0084B1B68FB60074B1A687B68AB
:10163C001344054A1360FB6818461837BD4680BD35
:10164C00005000200004000074010020E80200207B
:10165C0080B400AF00BFBD4680BC704780B586B07B
:10166C0000AF07F1080300221A605A609A60DA6032
:10167C003B4600221A605A601D4B4FF080421A60A4
:10168C001B4B43F67F625A60194B00229A60184B31
:10169C000922DA60164B00221A61154B00229A615E
:1016AC00134801F0DBFD0346002B01D0FFF7D9FEF8
:1016BC004FF48053BB6007F1080319460C4801F046
:1016CC005FFF0346002B01D0FFF7CBFE00233B60EE
:1016DC0000237B603B461946054802F041F903465E
:1016EC00002B01D0FFF7BDFE00BF1837BD4680BDF3
:1016FC004402002080B584B000AF78607B681B6822
:10170C00B3F1804F13D10C4BDB690B4A43F001034F
:10171C00D361094BDB6903F00103FB60FB6800221A
:10172C0000211C2000F0E3FA1C2000F0FCFA00BFA2
:10173C001037BD4680BD00BF0010024080B586B09A
:10174C0000AFF8607A601A460B467B8113463B81EA
:10175C0097F820305B10DBB203F00103FB7597F8B0
:10176C00203003F00103BB75FA7D7B891946F868BC
:10177C0000F08FFCBA7D3B891946786800F089FC33
:10178C0000BF1837BD4680BD80B584B002AF03469C
:10179C00FB71FB7900931023044A4FF480610348DA
:1017AC00FFF7CCFF00BF0837BD4680BD000C0140E1
:1017BC0080B584B002AF0346FB71FB7900934FF404
:1017CC008073054A4FF400710348FFF7B7FF00BF61
:1017DC000837BD4680BD00BF0008014080B500AF92
:1017EC000020FFF7D1FF0020FFF7E2FF00BF80BD14
:1017FC0080B500AF0320FFF7C7FF0120FFF7D8FF2C
:10180C0000BF80BD80B500AF0320FFF7BDFF0220F5
:10181C00FFF7CEFF00BF80BD80B500AF0120FFF702
:10182C00B3FF0320FFF7C4FF00BF80BD80B500AF3E
:10183C000220FFF7A9FF0320FFF7BAFF00BF80BD0E
:10184C0080B582B000AF0F4B1B68002B0CBF01237F
:10185C000023DBB21A460B4B1A600A4B1B68002B99
:10186C0001D0032300E00023FB71FB791846FFF73E
:10187C008BFFFB791846FFF79BFF00BF0837BD466F
:10188C0080BD00BF7801002080B582B000AF0F4B47
:10189C001B68002B0CBF01230023DBB21A460B4B39
:1018AC001A600A4B1B68002B01D0022300E00023B6
:1018BC00FB71FB791846FFF767FFFB791846FFF7BA
:1018CC0077FF00BF0837BD4680BD00BF7C010020FC
:1018DC0080B582B000AF0F4B1B68002B0CBF0123EF
:1018EC000023DBB21A460B4B1A600A4B1B68002B09
:1018FC0014BF01230023DBB2FB71FB791846FFF701
:10190C0043FFFB791846FFF753FF00BF0837BD466E
:10191C0080BD00BF8001002080B500AF114B124A82
:10192C001A60104B4FF4E1325A600E4B00229A6051
:10193C000C4B0022DA600B4B00221A61094B0C2273
:10194C005A61084B00229A61064B0022DA61054865
:10195C0002F076F80346002B01D0FFF782FD00BFA2
:10196C0080BD00BF8C0200200044004080B588B0D0
:10197C0000AF786007F1100300221A605A609A6079
:10198C00DA607B681B68154A934223D1144BDB69E0
:10199C00134A43F40033D361114BDB6903F4003376
:1019AC00FB60FB680E4B9B690D4A43F0040393618B
:1019BC000B4B9B6903F00403BB60BB680C233B61BE
:1019CC0002237B610223FB6107F1100319460548D2
:1019DC0000F0C4F900BF2037BD4680BD0044004074
:1019EC000010024000080140FFF732FE0B480C4982
:1019FC000C4A002302E0D458C4500433C4188C425F
:101A0C00F9D3094A094C002301E013600432A242C5
:101A1C00FBD302F0F9F8FFF785FC704700000020BB
:101A2C00F4000020E8460008F4000020E802002042
:101A3C00FEE7000080B500AF084B1B68074A43F077
:101A4C0010031360032000F047F9002000F008F8A1
:101A5C00FFF75CFD0023184680BD00BF002002404C
:101A6C0080B582B000AF7860124B1A68124B1B78AD
:101A7C0019464FF47A73B3FBF1F3B2FBF3F3184648
:101A8C0000F05FF90346002B01D001230EE07B68C8
:101A9C000F2B0AD8002279684FF0FF3000F027F99D
:101AAC00064A7B681360002300E0012318460837C0
:101ABC00BD4680BD840000208C00002088000020E2
:101ACC0080B400AF054B1B781A46054B1B681344BA
:101ADC00034A136000BFBD4680BC70478C000020D9
:101AEC00D402002080B400AF024B1B681846BD46E0
:101AFC0080BC7047D402002080B584B000AF786001
:101B0C00FFF7F0FFB8607B68FB60FB68B3F1FF3F49
:101B1C0005D00A4B1B781A46FB681344FB6000BFC8
:101B2C00FFF7E0FF0246BB68D31AFA689A42F7D86F
:101B3C0000BF00BF1037BD4680BD00BF8C00002029
:101B4C0080B485B000AF78607B6803F00703FB605E
:101B5C000C4BDB68BB60BA684FF6FF031340BB60ED
:101B6C00FB681A02BB68134343F0BF6343F40033B2
:101B7C00BB60044ABB68D36000BF1437BD4680BC51
:101B8C00704700BF00ED00E080B400AF044BDB6891
:101B9C001B0A03F007031846BD4680BC704700BF04
:101BAC0000ED00E080B483B000AF0346FB7197F901
:101BBC000730002B0BDBFB7903F01F02064997F96A
:101BCC0007305B09012000FA02F241F8232000BF24
:101BDC000C37BD4680BC704700E100E080B483B098
:101BEC0000AF03463960FB7197F90730002B0ADB15
:101BFC003B68DAB20C4997F907301201D2B20B44A8
:101C0C0083F800230AE03B68DAB20849FB7903F059
:101C1C000F03043B1201D2B20B441A7600BF0C37EF
:101C2C00BD4680BC704700BF00E100E000ED00E065
:101C3C0080B489B000AFF860B9607A60FB6803F0DB
:101C4C000703FB61FB69C3F10703042B28BF0423C3
:101C5C00BB61FB690433062B02D9FB69033B00E033
:101C6C0000237B614FF0FF32BB6902FA03F3DA43C6
:101C7C00BB681A407B699A404FF0FF317B6901FACF
:101C8C0003F3D9437B680B40134318462437BD46F6
:101C9C0080BC704780B582B000AF78607B68013B38
:101CAC00B3F1807F01D301230FE00A4A7B68013B2B
:101CBC0053600F214FF0FF30FFF790FF054B0022D0
:101CCC009A60044B07221A60002318460837BD4659
:101CDC0080BD00BF10E000E080B582B000AF78603E
:101CEC007868FFF72DFF00BF0837BD4680BD80B573
:101CFC0086B000AF0346B9607A60FB7300237B614A
:101D0C00FFF742FF78617A68B9687869FFF790FF4E
:101D1C00024697F90F3011461846FFF75FFF00BFD8
:101D2C001837BD4680BD80B582B000AF0346FB714D
:101D3C0097F907301846FFF735FF00BF0837BD4647
:101D4C0080BD80B582B000AF78607868FFF7A2FFE5
:101D5C00034618460837BD4680BD000080B48BB0E2
:101D6C0000AF7860396000237B6200233B6269E13D
:101D7C0001227B6A02FA03F3FB613B681B68FA6978
:101D8C001340BB61BA69FB699A4240F058813B68C9
:101D9C005B689A4A93425ED0984A934275D8984AA7
:101DAC00934258D0964A93426FD8964A934252D057
:101DBC00944A934269D8944A93424CD0924A9342A3
:101DCC0063D8924A934246D0904A93425DD8122BE4
:101DDC002AD8122B59D801A252F823F0631E0008FE
:101DEC003D1E00084F1E0008911E0008971E00089B
:101DFC00971E0008971E0008971E0008971E0008E3
:101E0C00971E0008971E0008971E0008971E0008D2
:101E1C00971E0008971E0008971E0008971E0008C2
:101E2C00451E0008591E0008794A934213D02CE035
:101E3C003B68DB683B6229E03B68DB6804333B6250
:101E4C0024E03B68DB6808333B621FE03B68DB68DF
:101E5C000C333B621AE03B689B68002B02D10423D5
:101E6C003B6213E03B689B68012B05D108233B6266
:101E7C007B68FA691A6109E008233B627B68FA699E
:101E8C005A6103E000233B6200E000BFBB69FF2BFB
:101E9C0001D87B6801E07B6804337B61BB69FF2B55
:101EAC0002D87B6A9B0002E07B6A083B9B003B618B
:101EBC007B691A680F213B6901FA03F3DB431A4073
:101ECC00396A3B6901FA03F31A437B691A603B6870
:101EDC005B6803F08053002B00F0B1804D4B9B6985
:101EEC004C4A43F0010393614A4B9B6903F0010395
:101EFC00BB60BB68484A7B6A9B08023352F82330AC
:101F0C00FB607B6A03F003039B000F2202FA03F3CE
:101F1C00DB43FA681340FB607B68404A934213D062
:101F2C007B683F4A93420DD07B683E4A934207D070
:101F3C007B683D4A934201D1032306E0042304E06D
:101F4C00022302E0012300E000237A6A02F003027C
:101F5C0092009340FA681343FB602F497B6A9B08FD
:101F6C000233FA6841F823203B685B6803F4801362
:101F7C00002B06D02D4B9A682C49BB6913438B6000
:101F8C0006E02A4B9A68BB69DB43284913408B60F7
:101F9C003B685B6803F40013002B06D0234BDA6814
:101FAC002249BB691343CB6006E0204BDA68BB695E
:101FBC00DB431E491340CB603B685B6803F4003382
:101FCC00002B06D0194B5A681849BB6913434B6058
:101FDC0006E0164B5A68BB69DB43144913404B604F
:101FEC003B685B6803F48033002B21D00F4B1A68DD
:101FFC000E49BB6913430B6021E000BF0000321097
:10200C0000003110000022100000211000001210FE
:10201C0000001110001002400000014000080140B7
:10202C00000C01400010014000140140000401406C
:10203C000B4B1A68BB69DB43094913400B607B6A85
:10204C0001337B623B681A687B6A22FA03F3002B2C
:10205C007FF48EAE00BF00BF2C37BD4680BC7047EE
:10206C000004014080B485B000AF78600B467B80E3
:10207C007B689A687B881340002B02D00123FB738A
:10208C0001E00023FB73FB7B18461437BD4680BC74
:10209C00704780B483B000AF78600B467B801346EA
:1020AC007B707B78002B03D07A887B681A6103E005
:1020BC007B881A047B681A6100BF0C37BD4680BC54
:1020CC007047000080B582B000AF0346FB80084B20
:1020DC005A69FB881340002B06D0054AFB885361D4
:1020EC00FB88184600F006F800BF0837BD4680BDD7
:1020FC000004014080B483B000AF0346FB8000BFF6
:10210C000C37BD4680BC704780B584B000AF78609A
:10211C007B68002B01D101232BE17B6893F83D30C8
:10212C00DBB2002B06D17B68002283F83C20786858
:10213C00FEF7D4FF7B68242283F83D207B681B6864
:10214C001A687B681B6822F001021A607B681B68A6
:10215C001A687B681B6842F400421A607B681B6833
:10216C001A687B681B6822F400421A6001F030F890
:10217C00F8607B685B68814A934207D8FB68804AA9
:10218C00934294BF01230023DBB206E0FB687D4A37
:10219C00934294BF01230023DBB2002B01D0012317
:1021AC00E7E0FB68784AA2FB03239B0CBB607B68CF
:1021BC001B685B6823F03F017B681B68BA680A43A5
:1021CC005A607B681B681B6A23F03F017B685B6865
:1021DC006A4A934202D8BB68013309E0BB684FF4EA
:1021EC00967202FB03F3694AA2FB03239B0901339A
:1021FC007A6812680B4313627B681B68DB6923F4F3
:10220C004F4222F0FF027B685B685C498B4219D815
:10221C00FB68591E7B685B685B00B1FBF3F3591CD0
:10222C0040F6FC730B40002B0AD0FB68591E7B68F0
:10223C005B685B00B1FBF3F30133C3F30B0351E0B9
:10224C0004234FE07B689B68002B11D1FB68581E60
:10225C007B6859680B465B000B44B0FBF3F301330E
:10226C00C3F30B03002B0CBF01230023DBB212E0E2
:10227C00FB68581E7B6859680B469B000B44990001
:10228C000B44B0FBF3F30133C3F30B03002B0CBF74
:10229C0001230023DBB2002B01D0012322E07B6859
:1022AC009B68002B0ED1FB68581E7B6859680B4647
:1022BC005B000B44B0FBF3F30133C3F30B0343F4A8
:1022CC0000430FE0FB68581E7B6859680B469B0067
:1022DC000B4499000B44B0FBF3F30133C3F30B0332
:1022EC0043F44043796809681343CB617B681B68EE
:1022FC001B6823F0C0017B68DA697B681B6A1A4390
:10230C007B681B680A431A607B681B689B6823F414
:10231C00034323F0FF037A6811697A68D26811438A
:10232C007A6812680B4393607B681B68DB6823F048
:10233C00FF017B685A697B689B691A437B681B6841
:10234C000A43DA607B681B681A687B681B6842F07A
:10235C0001021A607B6800221A647B68202283F8D1
:10236C003D207B6800221A637B68002283F83E20A4
:10237C00002318461037BD4680BD00BFA086010063
:10238C007F841E00FF083D0083DE1B43D34D62108B
:10239C0080B588B002AFF8607A601A460B467B8134
:1023AC0013463B81FFF79EFB7861FB6893F83D3049
:1023BC00DBB2202B40F0E0807B69009319230122D3
:1023CC007049F86800F064F90346002B01D0022331
:1023DC00D3E0FB6893F83C30012B01D10223CCE015
:1023EC00FB68012283F83C20FB681B681B6803F028
:1023FC000103012B07D0FB681B681A68FB681B687C
:10240C0042F001021A60FB681B681A68FB681B68C3
:10241C0022F400621A60FB68212283F83D20FB68DD
:10242C00102283F83E20FB6800221A64FB687A684D
:10243C005A62FB683A895A85FB685B8D9AB2FB68D5
:10244C001A85FB68504ADA6279897B693A6AF868BE
:10245C0000F09CF80346002B01D001238DE00023F3
:10246C003B61FB681B685B693B61FB681B689B6994
:10247C003B613B6966E07A69396AF86800F022FAD8
:10248C000346002B0DD0FB681B6C042B07D1FB689B
:10249C001B681A68FB681B6842F400721A600123FF
:1024AC006BE0FB685B6A1A78FB681B681A61FB6857
:1024BC005B6A5A1CFB685A62FB685B8D9BB2013BE2
:1024CC009AB2FB685A85FB681B8D013B9AB2FB687C
:1024DC001A85FB681B685B6903F00403042B1BD192
:1024EC00FB681B8D002B17D0FB685B6A1A78FB68A6
:1024FC001B681A61FB685B6A5A1CFB685A62FB68B2
:10250C005B8D9BB2013B9AB2FB685A85FB681B8DB5
:10251C00013B9AB2FB681A857A69396AF86800F04F
:10252C0019FA0346002B0DD0FB681B6C042B07D14A
:10253C00FB681B681A68FB681B6842F400721A601F
:10254C0001231AE0FB681B8D002B94D1FB681B68E0
:10255C001A68FB681B6842F400721A60FB68202240
:10256C0083F83D20FB68002283F83E20FB680022A4
:10257C0083F83C20002300E0022318461837BD46A0
:10258C0080BD00BF020010000000FFFF80B588B0C6
:10259C0002AFF8607A603B600B467B81FB68DB6ABC
:1025AC007B617B69082B06D07B69012B03D07B698F
:1025BC0013F5803F08D1FB681B681A68FB681B6821
:1025CC0042F480721A600BE0FB681B6B122B07D174
:1025DC00FB681B681A68FB681B6842F480721A60FF
:1025EC003B6800937B6800224FF00111F86800F003
:1025FC004FF80346002B0DD0FB681B681B6803F4D7
:10260C008073B3F5807F03D1FB684FF400721A64BA
:10261C00032335E0FB681B69B3F5804F08D17B8938
:10262C00DBB21A46FB681B6802F0FE021A611BE063
:10263C007B89DB11DBB203F00603DBB263F00F0323
:10264C00DAB2FB681B681A613B687A680E49F86855
:10265C0000F098F80346002B01D0012310E07B8991
:10266C00DAB2FB681B681A613B687A680749F8683C
:10267C0000F088F80346002B01D0012300E0002372
:10268C0018461837BD4680BD080001000200010045
:10269C0080B584B000AFF860B9603B601346FB7145
:1026AC0048E03B68B3F1FF3F44D0FFF71BFA02460A
:1026BC00BB69D31A3A689A4202D33B68002B39D1D2
:1026CC00BB681B0CDBB2012B0DD1FB681B685B6973
:1026DC00DA43BB6813409BB2002B0CBF01230023D1
:1026EC00DBB21A460CE0FB681B689B69DA43BB68DB
:1026FC0013409BB2002B0CBF01230023DBB21A4604
:10270C00FB799A4216D1FB6800221A63FB682022DF
:10271C0083F83D20FB68002283F83E20FB681B6C8D
:10272C0043F02002FB681A64FB68002283F83C200B
:10273C00012323E0BB681B0CDBB2012B0DD1FB6822
:10274C001B685B69DA43BB6813409BB2002B0CBF60
:10275C0001230023DBB21A460CE0FB681B689B6963
:10276C00DA43BB6813409BB2002B0CBF0123002340
:10277C00DBB21A46FB799A4293D0002318461037E5
:10278C00BD4680BD80B584B000AFF860B9607A609A
:10279C003B6071E0FB681B685B6903F48063B3F515
:1027AC00806F23D1FB681B681A68FB681B6842F4B6
:1027BC0000721A60FB681B686FF480625A61FB68D8
:1027CC0000221A63FB68202283F83D20FB6800225C
:1027DC0083F83E20FB681B6C43F00402FB681A6410
:1027EC00FB68002283F83C20012367E07B68B3F18F
:1027FC00FF3F41D0FFF776F902463B68D31A7A685F
:10280C009A4202D37B68002B36D1BB681B0CDBB21F
:10281C00012B0CD1FB681B685B69DA43BB68134066
:10282C009BB2002B14BF01230023DBB20BE0FB682F
:10283C001B689B69DA43BB6813409BB2002B14BF27
:10284C0001230023DBB2002B16D0FB6800221A6395
:10285C00FB68202283F83D20FB68002283F83E2091
:10286C00FB681B6C43F02002FB681A64FB680022B7
:10287C0083F83C20012321E0BB681B0CDBB2012B4D
:10288C000CD1FB681B685B69DA43BB6813409BB2D5
:10289C00002B14BF01230023DBB20BE0FB681B6889
:1028AC009B69DA43BB6813409BB2002B14BF012316
:1028BC000023DBB2002B7FF46DAF002318461037DA
:1028CC00BD4680BD80B584B000AFF860B9607A6059
:1028DC0034E0F86800F086F80346002B01D00123A1
:1028EC0034E0BB68B3F1FF3F28D0FFF7FBF802469A
:1028FC007B68D31ABA689A4202D3BB68002B1DD1ED
:10290C00FB681B685B6903F08003802B16D0FB68A7
:10291C0000221A63FB68202283F83D20FB6800220A
:10292C0083F83E20FB681B6C43F02002FB681A64A2
:10293C00FB68002283F83C20012307E0FB681B683E
:10294C005B6903F08003802BC3D10023184610373A
:10295C00BD4680BD80B584B000AFF860B9607A60C8
:10296C0034E0F86800F03EF80346002B01D0012358
:10297C0034E0BB68B3F1FF3F28D0FFF7B3F8024651
:10298C007B68D31ABA689A4202D3BB68002B1DD15C
:10299C00FB681B685B6903F00403042B16D0FB680F
:1029AC0000221A63FB68202283F83D20FB6800227A
:1029BC0083F83E20FB681B6C43F02002FB681A6412
:1029CC00FB68002283F83C20012307E0FB681B68AE
:1029DC005B6903F00403042BC3D1002318461037A2
:1029EC00BD4680BD80B483B000AF78607B681B6847
:1029FC005B6903F48063B3F5806F1BD17B681B6844
:102A0C006FF480625A617B6800221A637B68202213
:102A1C0083F83D207B68002283F83E207B681B6C8A
:102A2C0043F004027B681A647B68002283F83C2024
:102A3C00012300E0002318460C37BD4680BC7047CC
:102A4C0080B586B000AF78607B68002B01D1012384
:102A5C006CE27B681B6803F00103002B00F087809D
:102A6C00924B5B6803F00C03042B0CD08F4B5B6810
:102A7C0003F00C03082B12D18C4B5B6803F48033EE
:102A8C00B3F5803F0BD1894B1B6803F40033002B4B
:102A9C006CD07B685B68002B68D1012346E27B68B5
:102AAC005B68B3F5803F06D1804B1B687F4A43F4CB
:102ABC00803313602EE07B685B68002B0CD17B4B62
:102ACC001B687A4A23F480331360784B1B68774A6F
:102ADC0023F4802313601DE07B685B68B3F5A02FA3
:102AEC000CD1724B1B68714A43F4802313606F4BFB
:102AFC001B686E4A43F4803313600BE06B4B1B680E
:102B0C006A4A23F480331360684B1B68674A23F4CA
:102B1C00802313607B685B68002B13D0FEF7E2FF09
:102B2C00386108E0FEF7DEFF02463B69D31A642BDE
:102B3C0001D90323FAE15D4B1B6803F40033002B2E
:102B4C00F0D014E0FEF7CEFF386108E0FEF7CAFFC4
:102B5C0002463B69D31A642B01D90323E6E1534B9C
:102B6C001B6803F40033002BF0D100E000BF7B683E
:102B7C001B6803F00203002B63D04C4B5B6803F023
:102B8C000C03002B0BD0494B5B6803F00C03082B98
:102B9C001CD1464B5B6803F48033002B16D1434B9E
:102BAC001B6803F00203002B05D07B681B69012B0B
:102BBC0001D00123BAE13D4B1B6823F0F8027B687E
:102BCC005B69DB00394913430B603AE07B681B6996
:102BDC00002B20D0364B01221A60FEF783FF3861A0
:102BEC0008E0FEF77FFF02463B69D31A022B01D99E
:102BFC0003239BE12D4B1B6803F00203002BF0D049
:102C0C002A4B1B6823F0F8027B685B69DB002749C1
:102C1C0013430B6015E0264B00221A60FEF762FF8F
:102C2C00386108E0FEF75EFF02463B69D31A022BBF
:102C3C0001D903237AE11D4B1B6803F00203002B1F
:102C4C00F0D17B681B6803F00803002B3AD07B683B
:102C5C009B69002B19D0174B01221A60FEF742FF1B
:102C6C00386108E0FEF73EFF02463B69D31A022B9F
:102C7C0001D903235AE10D4B5B6A03F00203002BCD
:102C8C00F0D0012000F0CCFA1CE00A4B00221A60B4
:102C9C00FEF728FF38610FE0FEF724FF02463B6980
:102CAC00D31A022B08D9032340E100BF00100240C5
:102CBC0000004242800442429E4B5B6A03F00203D6
:102CCC00002BE9D17B681B6803F00403002B00F098
:102CDC00A6800023FB75974BDB6903F08053002B18
:102CEC000DD1944BDB69934A43F08053D361914BE4
:102CFC00DB6903F08053BB60BB680123FB758E4B13
:102D0C001B6803F48073002B18D18B4B1B688A4A09
:102D1C0043F480731360FEF7E5FE386108E0FEF7BC
:102D2C00E1FE02463B69D31A642B01D90323FDE073
:102D3C00814B1B6803F48073002BF0D07B68DB683D
:102D4C00012B06D17B4B1B6A7A4A43F001031362B9
:102D5C002DE07B68DB68002B0CD1764B1B6A754A27
:102D6C0023F001031362734B1B6A724A23F00403B2
:102D7C0013621CE07B68DB68052B0CD16D4B1B6A66
:102D8C006C4A43F0040313626A4B1B6A694A43F0B2
:102D9C00010313620BE0674B1B6A664A23F00103C5
:102DAC001362644B1B6A634A23F0040313627B684F
:102DBC00DB68002B15D0FEF795FE38610AE0FEF7B4
:102DCC0091FE02463B69D31A41F28832934201D9F3
:102DDC000323ABE0574B1B6A03F00203002BEED02E
:102DEC0014E0FEF77FFE38610AE0FEF77BFE024638
:102DFC003B69D31A41F28832934201D9032395E0FF
:102E0C004C4B1B6A03F00203002BEED1FB7D012B14
:102E1C0005D1484BDB69474A23F08053D3617B686B
:102E2C00DB69002B00F08180424B5B6803F00C03E4
:102E3C00082B61D07B68DB69022B46D13F4B00220B
:102E4C001A60FEF74FFE386108E0FEF74BFE0246B3
:102E5C003B69D31A022B01D9032367E0354B1B685E
:102E6C0003F00073002BF0D17B681B6AB3F5803F35
:102E7C0008D1304B5B6823F400327B689B682D498A
:102E8C0013434B602B4B5B6823F474127B68196AF9
:102E9C007B685B6A0B43274913434B60274B01222A
:102EAC001A60FEF71FFE386108E0FEF71BFE0246B3
:102EBC003B69D31A022B01D9032337E01D4B1B6846
:102ECC0003F00073002BF0D02FE01C4B00221A6093
:102EDC00FEF708FE386108E0FEF704FE02463B6987
:102EEC00D31A022B01D9032320E0124B1B6803F0E9
:102EFC000073002BF0D118E07B68DB69012B01D14A
:102F0C00012313E00B4B5B68FB60FB6803F480321E
:102F1C007B681B6A9A4206D1FB6803F470127B68CB
:102F2C005B6A9A4201D0012300E00023184618374F
:102F3C00BD4680BD0010024000700040600042425F
:102F4C0080B584B000AF786039607B68002B01D10C
:102F5C000123D0E06A4B1B6803F007033A689A42DE
:102F6C0010D9674B1B6823F0070265493B68134374
:102F7C000B60634B1B6803F007033A689A4201D05D
:102F8C000123B8E07B681B6803F00203002B20D000
:102F9C007B681B6803F00403002B05D0594B5B685E
:102FAC00584A43F4E06353607B681B6803F00803E2
:102FBC00002B05D0534B5B68524A43F4605353606B
:102FCC00504B5B6823F0F0027B689B684D491343C0
:102FDC004B607B681B6803F00103002B40D07B68BF
:102FEC005B68012B07D1474B1B6803F40033002BA4
:102FFC0015D101237FE07B685B68022B07D1414B25
:10300C001B6803F00073002B09D1012373E03D4BC7
:10301C001B6803F00203002B01D101236BE0394B39
:10302C005B6823F003027B685B68364913434B6093
:10303C00FEF758FDF8600AE0FEF754FD0246FB6807
:10304C00D31A41F28832934201D9032353E02D4B1A
:10305C005B6803F00C027B685B689B009A42EBD1C7
:10306C00274B1B6803F007033A689A4210D2244B93
:10307C001B6823F0070222493B6813430B60204B6B
:10308C001B6803F007033A689A4201D0012332E02F
:10309C007B681B6803F00403002B08D0194B5B689A
:1030AC0023F4E0627B68DB68164913434B607B6852
:1030BC001B6803F00803002B09D0124B5B6823F448
:1030CC0060527B681B69DB000E4913434B6000F0B8
:1030DC0021F802460B4B5B681B0903F00F030A49EE
:1030EC00CB5C22FA03F3094A1360094B1B681846A0
:1030FC00FEF7B6FC002318461037BD4680BD00BF56
:10310C00002002400010024080460008840000208D
:10311C008800002080B487B000AF0023FB60002340
:10312C00BB6000237B6100237B6000233B611E4B53
:10313C005B68FB60FB6803F00C03042B02D0082BCC
:10314C0003D027E0194B3B6127E0FB689B0C03F095
:10315C000F03174AD35C7B60FB6803F48033002BAE
:10316C0010D0114B5B685B0C03F00103114AD35C6C
:10317C00BB607B680D4A02FB03F2BB68B2FBF3F346
:10318C007B6104E07B680C4A02FB03F37B617B6987
:10319C003B6102E0054B3B6100BF3B6918461C37A5
:1031AC00BD4680BC704700BF0010024000127A0080
:1031BC0098460008A846000800093D0080B400AFFE
:1031CC00024B1B681846BD4680BC7047840000202B
:1031DC0080B500AFFFF7F2FF0246054B5B681B0A98
:1031EC0003F007030349CB5C22FA03F3184680BDB6
:1031FC00001002409046000880B500AFFFF7DEFFDC
:10320C000246054B5B68DB0A03F007030349CB5C02
:10321C0022FA03F3184680BD0010024090460008C5
:10322C0080B485B000AF78600A4B1B680A4AA2FBD9
:10323C0003235B0A7A6802FB03F3FB6000BFFB68A5
:10324C005A1EFA60002BF9D100BF00BF1437BD46DF
:10325C0080BC704784000020D34D621080B582B0D2
:10326C0000AF78607B68002B01D1012341E07B68C3
:10327C0093F83D30DBB2002B06D17B68002283F83B
:10328C003C207868FEF736FA7B68022283F83D20F2
:10329C007B681A687B6804331946104600F05CFAA8
:1032AC007B68012283F846207B68012283F83E204C
:1032BC007B68012283F83F207B68012283F8402041
:1032CC007B68012283F841207B68012283F842202D
:1032DC007B68012283F843207B68012283F8442019
:1032EC007B68012283F845207B68012283F83D200E
:1032FC00002318460837BD4680BD000080B485B059
:10330C0000AF78607B6893F83D30DBB2012B01D0C5
:10331C0001233AE07B68022283F83D207B681B681E
:10332C00DA687B681B6842F00102DA607B681B6814
:10333C00184A93420ED07B681B68B3F1804F09D0BA
:10334C007B681B68144A934204D07B681B68134A41
:10335C00934211D17B681B689B6803F00703FB60E9
:10336C00FB68062B10D07B681B681A687B681B688F
:10337C0042F001021A6007E07B681B681A687B68E0
:10338C001B6842F001021A60002318461437BD4630
:10339C0080BC7047002C0140000400400008004035
:1033AC0080B584B000AF78607B681B68DB68FB601D
:1033BC007B681B681B69BB60BB6803F00203002BB6
:1033CC0020D0FB6803F00203002B1BD07B681B682A
:1033DC006FF002021A617B6801221A777B681B6806
:1033EC009B6903F00303002B03D0786800F098F975
:1033FC0005E0786800F08BF9786800F09AF97B6842
:10340C0000221A77BB6803F00403002B20D0FB6862
:10341C0003F00403002B1BD07B681B686FF00402C5
:10342C001A617B6802221A777B681B689B6903F41C
:10343C004073002B03D0786800F072F905E07868CF
:10344C0000F065F9786800F074F97B6800221A774F
:10345C00BB6803F00803002B20D0FB6803F00803C3
:10346C00002B1BD07B681B686FF008021A617B680D
:10347C0004221A777B681B68DB6903F00303002BBB
:10348C0003D0786800F04CF905E0786800F03FF95B
:10349C00786800F04EF97B6800221A77BB6803F05D
:1034AC001003002B20D0FB6803F01003002B1BD063
:1034BC007B681B686FF010021A617B6808221A7710
:1034CC007B681B68DB6903F44073002B03D07868BE
:1034DC0000F026F905E0786800F019F9786800F03A
:1034EC0028F97B6800221A77BB6803F00103002BD4
:1034FC000CD0FB6803F00103002B07D07B681B6822
:10350C006FF001021A617868FDF79FFFBB6803F04A
:10351C008003002B0CD0FB6803F08003002B07D03A
:10352C007B681B686FF080021A61786800F07FFA84
:10353C00BB6803F04003002B0CD0FB6803F0400386
:10354C00002B07D07B681B686FF040021A6178680B
:10355C0000F0F8F8BB6803F02003002B0CD0FB68DC
:10356C0003F02003002B07D07B681B686FF0200250
:10357C001A61786800F052FA00BF1037BD4680BD62
:10358C0080B584B000AF786039600023FB737B6832
:10359C0093F83C30012B01D10223B4E07B6801226B
:1035AC0083F83C207B68022283F83D207B681B68F3
:1035BC009B68BB60BB6823F07703BB60BB6823F4DC
:1035CC007F43BB607B681B68BA689A603B681B686A
:1035DC00B3F5005F3ED0B3F5005F00F28780B3F522
:1035EC00805F00F08680B3F5805F7FD8702B1AD097
:1035FC00702B7BD8602B50D0602B77D8502B3CD0C5
:10360C00502B73D8402B58D0402B6FD8302B64D014
:10361C00302B6BD8202B60D0202B67D8002B5CD0A4
:10362C00102B5AD062E07B6818683B6899683B683D
:10363C005A683B68DB6800F074F97B681B689B6810
:10364C00BB60BB6843F07703BB607B681B68BA68E0
:10365C009A604FE07B6818683B6899683B685A68C9
:10366C003B68DB6800F05DF97B681B689A687B68D7
:10367C001B6842F480429A603CE07B6818683B68A7
:10368C0059683B68DB681A4600F0D4F87B681B6805
:10369C005021184600F02BF92CE07B6818683B6829
:1036AC0059683B68DB681A4600F0F2F87B681B68C7
:1036BC006021184600F01BF91CE07B6818683B6819
:1036CC0059683B68DB681A4600F0B4F87B681B68E5
:1036DC004021184600F00BF90CE07B681A683B6837
:1036EC001B681946104600F002F903E00123FB7336
:1036FC0000E000BF7B68012283F83D207B6800223C
:10370C0083F83C20FB7B18461037BD4680BD80B447
:10371C0083B000AF786000BF0C37BD4680BC7047EB
:10372C0080B483B000AF786000BF0C37BD4680BC5E
:10373C00704780B483B000AF786000BF0C37BD46D3
:10374C0080BC704780B483B000AF786000BF0C378A
:10375C00BD4680BC7047000080B485B000AF786077
:10376C0039607B681B68FB607B682F4A93420BD0E7
:10377C007B68B3F1804F07D07B682C4A934203D00F
:10378C007B682B4A934208D1FB6823F07003FB60E3
:10379C003B685B68FA681343FB607B68224A934280
:1037AC000BD07B68B3F1804F07D07B681F4A9342E4
:1037BC0003D07B681E4A934208D1FB6823F4407304
:1037CC00FB603B68DB68FA681343FB60FB6823F023
:1037DC0080023B685B691343FB607B68FA681A6084
:1037EC003B689A687B68DA623B681A687B689A6205
:1037FC007B680D4A934203D13B681A697B681A6354
:10380C007B6801225A617B681B6903F00103002B62
:10381C0005D07B681B6923F001027B681A6100BF2D
:10382C001437BD4680BC7047002C0140000400409A
:10383C000008004080B487B000AFF860B9607A60CF
:10384C00FB681B6A7B61FB681B6A23F00102FB6847
:10385C001A62FB689B693B613B6923F0F0033B6197
:10386C007B681B013A6913433B617B6923F00A03B4
:10387C007B617A69BB6813437B61FB683A699A6127
:10388C00FB687A691A6200BF1C37BD4680BC704762
:10389C0080B487B000AFF860B9607A60FB681B6ACF
:1038AC007B61FB681B6A23F01002FB681A62FB68E1
:1038BC009B693B613B6923F470433B617B681B0351
:1038CC003A6913433B617B6923F0A0037B61BB68BE
:1038DC001B017A6913437B61FB683A699A61FB6847
:1038EC007A691A6200BF1C37BD4680BC704780B431
:1038FC0085B000AF786039607B689B68FB60FB68C3
:10390C0023F07003FB603A68FB68134343F0070332
:10391C00FB607B68FA689A6000BF1437BD4680BCB8
:10392C00704780B487B000AFF860B9607A603B60D4
:10393C00FB689B687B617B6923F47F437B613B68FD
:10394C001A027B681A43BB6813437A6913437B6181
:10395C00FB687A699A6000BF1C37BD4680BC704713
:10396C0080B485B000AF786039607B6893F83C30E8
:10397C00012B01D1022346E07B68012283F83C2015
:10398C007B68022283F83D207B681B685B68FB60C8
:10399C007B681B689B68BB60FB6823F07003FB6053
:1039AC003B681B68FA681343FB607B681B68FA680A
:1039BC005A607B681B68164A93420ED07B681B6862
:1039CC00B3F1804F09D07B681B68124A934204D034
:1039DC007B681B68104A93420CD1BB6823F08003B0
:1039EC00BB603B685B68BA681343BB607B681B6851
:1039FC00BA689A607B68012283F83D207B680022BC
:103A0C0083F83C20002318461437BD4680BC704711
:103A1C00002C0140000400400008004080B483B03A
:103A2C0000AF786000BF0C37BD4680BC704780B4D7
:103A3C0083B000AF786000BF0C37BD4680BC7047C8
:103A4C0080B582B000AF78607B68002B01D1012378
:103A5C0042E07B6893F84130DBB2002B06D17B68E7
:103A6C00002283F840207868FDF780FF7B682422D1
:103A7C0083F841207B681B68DA687B681B6822F43A
:103A8C000052DA60786800F02BF87B681B681A69C2
:103A9C007B681B6822F490421A617B681B685A6928
:103AAC007B681B6822F02A025A617B681B68DA6803
:103ABC007B681B6842F40052DA607B6800225A640F
:103ACC007B68202283F841207B68202283F84220E7
:103ADC007B6800225A63002318460837BD4680BD18
:103AEC0080B584B000AF78607B681B681B6923F4D9
:103AFC0040517B68DA687B681B680A431A617B68F3
:103B0C009A687B681B691A437B685B691343BB60CB
:103B1C007B681B68DB6823F4B05323F00C037A68D2
:103B2C001268B9680B43D3607B681B685B6923F42C
:103B3C0040717B689A697B681B680A435A617B6891
:103B4C001B682C4A934203D1FFF756FBF86002E046
:103B5C00FFF73EFBF860FA6813469B0013449A008B
:103B6C001A447B685B689B00B2FBF3F3224AA2FB0E
:103B7C0003235B091901FA6813469B0013449A004E
:103B8C001A447B685B689B00B2FBF3F21A4BA3FBF5
:103B9C0002035B09642000FB03F3D31A1B013233CD
:103BAC00154AA2FB03235B0903F0F0031944FA68DE
:103BBC0013469B0013449A001A447B685B689B0075
:103BCC00B2FBF3F20C4BA3FB02035B09642000FB7A
:103BDC0003F3D31A1B013233074AA2FB03235B09FD
:103BEC0003F00F027B681B680A449A6000BF103711
:103BFC00BD4680BD003801401F85EB51014B186854
:103C0C00704700BF9000002070B500260C4D0D4C85
:103C1C00641BA410A64209D100F094FC00260A4DA6
:103C2C000A4C641BA410A64205D170BD55F8043B88
:103C3C0098470136EEE755F8043B98470136F2E712
:103C4C00E0460008E0460008E0460008E4460008AC
:103C5C0003460244934200D1704703F8011BF9E775
:103C6C000CB430B5174B0C1E1D689DB008DA8B23B5
:103C7C004FF0FF302B601DB0BDE8304002B07047F4
:103C8C004FF40273ADF814300CBF234604F1FF332C
:103C9C00049307934FF6FF7302900690ADF816301D
:103CAC00284621AB209A02A9019300F08DF8431C01
:103CBC00BCBF8B232B60002CDDD00022029B1A7022
:103CCC00D9E700BF9000002010B56AB10139841803
:103CDC0010F8013B11F8012F934203D1A04201D0FF
:103CEC00002BF5D1981A10BD1046FCE7034610B511
:103CFC00013932B111F8014F013A03F8014B002C94
:103D0C00F7D100211A44934200D110BD03F8011BD6
:103D1C00F9E72DE9F0478E6882469E420C469046A4
:103D2C001F4638D88A8912F4906F32D025680969F9
:103D3C000133A5EB010965694B4405EB450505EB22
:103D4C00D5756D109D4238BF1D46530531D529469A
:103D5C0000F052FB064650B90C234FF0FF30CAF866
:103D6C000030A38943F04003A381BDE8F0874A46A5
:103D7C00216900F0CDFAA38923F4906343F080030A
:103D8C00A38126614E4426603E466561A5EB09057C
:103D9C00A560BE4200D93E4632464146206800F03E
:103DAC00C5FAA36822689B1B32440020A3602260E2
:103DBC00DBE72A4600F07AFB06460028E1D15046A4
:103DCC00216900F0CDFAC7E72DE9F04F98468B89B1
:103DDC0007461B060D4614469DB00ED50B6963B9FC
:103DEC00402100F009FB2860286120B90C233B60BE
:103DFC004FF0FF30D1E040236B6100230993202367
:103E0C008DF8293030234FF00109CDF80C80DFF804
:103E1C00A4818DF82A3023469A4613F8012B0AB157
:103E2C00252AF9D1BAEB040B0BD05B462246294666
:103E3C003846FFF76EFF013000F0AA80099A5A4409
:103E4C0009929AF80030002B00F0A28000234FF06A
:103E5C00FF32CDE905230AF1010A049307938DF88B
:103E6C0053301A935446052214F8011B514800F0A4
:103E7C0041FA049AD8B9D00644BF20238DF85330A8
:103E8C00110744BF2B238DF853309AF800302A2B9E
:103E9C0015D0544600204FF00A0C079A214611F811
:103EAC00013B303B092B4ED9B0B1079214E0A0EB8B
:103EBC00080309FA03F31343A2460493D2E7039BC6
:103ECC00191D1B680391002BBBBF5B4242F0020221
:103EDC0007930793B8BF049223782E2B0CD16378E9
:103EEC002A2B35D1039B02341A1D1B680392002B1D
:103EFC00B8BF4FF0FF330593DFF8C8A0032250463C
:103F0C00217800F0F7F940B14023A0EB0A0003FA46
:103F1C0000F0049B01340343049314F8011B0622A4
:103F2C0025488DF8281000F0E5F9002838D0234BEF
:103F3C001BBB039B073323F0070308330393099B35
:103F4C003344099367E70C4601200CFB0232A5E7CA
:103F5C0000234FF00A0C194601340593204610F843
:103F6C00012B303A092A03D9002BC5D00591C3E7A0
:103F7C00044601230CFB0121F0E703AB00932A4616
:103F8C0038460F4B04A9AFF30080421C0646D6D12D
:103F9C00AB895B063FF52CAF09981DB0BDE8F08FDF
:103FAC0003AB00932A463846054B04A900F07CF875
:103FBC00EBE700BFAA460008B4460008000000006A
:103FCC001F3D0008B04600082DE9F04716469946FB
:103FDC008A680B6907469342B8BF1346336091F861
:103FEC0043200C46DDF820800AB10133336023688E
:103FFC00990642BF336802333360256815F0060515
:10400C0006D104F1190AE36832689B1AAB4228DC2A
:10401C0094F84320131E226818BF012392062DD456
:10402C004946384604F14302C047013020D023688A
:10403C00E56803F00603042B18BF002532684FF027
:10404C000006A36808BFAD1A226908BF25EAE5750A
:10405C009342C4BF9B1AED181A34B5421AD10020F2
:10406C0008E00123524649463846C047013003D187
:10407C004FF0FF30BDE8F0870135C4E73020E11880
:10408C0081F843005A1C94F845102244023382F8FC
:10409C004310C5E70123224649463846C047013044
:1040AC00E6D00136D9E700002DE9FF470C46277E04
:1040BC009146782F80469A460C9904F1430207D812
:1040CC00622F0AD8002F00F0D980582F00F0A4805E
:1040DC0004F1420684F842703AE0A7F16303152B11
:1040EC00F6D801A050F823F04D41000861410008BA
:1040FC00DD400008DD400008DD400008DD40000820
:10410C0061410008DD400008DD400008DD4000088A
:10411C00DD4000086F420008914100085142000840
:10412C00DD400008DD40000891420008DD40000839
:10413C0091410008DD400008DD40000859420008AC
:10414C000B6804F142061A1D1B680A6084F84230A1
:10415C000123A4E0256808682E0600F104030AD5A3
:10416C0005680B60002D03DA2D236D4284F8433073
:10417C000A235E4819E015F0400F05680B6018BF64
:10418C002DB2EFE70B682568181D0860280601D5CD
:10419C001D6802E06906FBD51D886F2F0CBF082334
:1041AC000A235248002184F843106668002EA8BFE9
:1041BC002168A660A4BF21F0040121600DB9002E76
:1041CC004DD01646B5FBF3F103FB1157C75D06F84E
:1041DC00017D2F46BB420D46F4D9082B0BD1236829
:1041EC00DF0708D5236961689942DEBF302306F8E2
:1041FC00013C06F1FF36921B22614B46214640469C
:10420C00CDF800A003AAFFF7DFFE01304CD14FF030
:10421C00FF3004B0BDE8F087344884F845700E6870
:10422C00236856F8045B1F060E6014D5D90744BFEB
:10423C0043F0200323601DB9236823F0200323607F
:10424C001023AFE7236843F020032360782328482A
:10425C0084F84530E3E75E0648BFADB2E6E71646A4
:10426C00BBE70B6826681D1D60690D6035061B6871
:10427C0001D5186002E07106FBD5188000231646A4
:10428C002361BAE70B681A1D0A601E6800213046CC
:10429C00626800F02FF808B1801B606063682361CE
:1042AC00002384F84330A8E7324649464046236948
:1042BC00D0470130ABD023689B0713D4E068039B35
:1042CC009842B8BF1846A4E70123324649464046F7
:1042DC00D04701309BD00135E36803995B1AAB42A0
:1042EC00F2DCEBE7002504F11906F5E7BB46000804
:1042FC00CC460008034610B5C9B202449342184696
:10430C0001D1002003E0047801338C42F6D110BDBA
:10431C000A44914200F1FF3300D1704710B511F8F7
:10432C00014B914203F8014FF9D110BD884210B5F1
:10433C0001EB020402D98442234607D8431EA14252
:10434C0008D011F8012B03F8012FF8E701460244BD
:10435C008A4200D110BD13F8014D02F8014DF7E768
:10436C0038B50546002943D051F8043C0C1F002BEE
:10437C00B8BFE41800F0D0F81E4A1368104633B9E1
:10438C00636014602846BDE8384000F0CBB8A34207
:10439C000AD921686218934201BF1A685B685218E7
:1043AC00226063600460EDE71A465B680BB1A342C0
:1043BC00FAD911685018A0420BD12068014450184A
:1043CC0083421160DED118685B6801441160536050
:1043DC00D8E702D90C232B60D4E7206821188B4234
:1043EC0001BF19685B680918216063605460C9E7F4
:1043FC0038BD00BF84010020F8B5CD1C25F00305A5
:10440C0008350C2D38BF0C25002D064601DBA942C2
:10441C0003D90C2333600020F8BD00F07DF821494E
:10442C000A6814469CB9204F3B6823B92146304694
:10443C0000F062F838602946304600F05DF8431C05
:10444C0023D10C233046336000F06CF8E3E723688B
:10445C005B1B17D40B2B03D923601C44256004E091
:10446C006368A2420CBF0B605360304600F05AF8F0
:10447C0004F10B00231D20F00700C21ACCD01B1A2C
:10448C00A350C9E722466468CCE7C41C24F003049B
:10449C00A042E3D0211A304600F02EF80130DDD1D5
:1044AC00CFE700BF8401002088010020F8B5074643
:1044BC0014460E4621B91146BDE8F840FFF79CBFE3
:1044CC0022B9FFF74DFF25462846F8BD00F030F81D
:1044DC00A0420FD221463846FFF78EFF0546002832
:1044EC00F2D031462246FFF713FF31463846FFF72C
:1044FC0037FFE9E73546E7E738B50023054D0446B5
:10450C0008462B60FDF76EF8431C02D12B6803B1F3
:10451C00236038BDD8020020014800F011B800BF5C
:10452C00E0020020014800F00CB800BFE0020020BF
:10453C0051F8043C181F002BBCBF0B58C018704717
:10454C0070477047F8B500BFF8BC08BC9E46704772
:0C455C00F8B500BFF8BC08BC9E467047D4
:104568002020202020202020202020202020202043
:1045780000000000563A25303264202020483A25B1
:1045880030326420202000004155544F20494E49C4
:10459800540000004155544F20522D4700000000A0
:1045A8004155544F20522D59000000004155544F99
:1045B80020472D52000000004155544F20592D52DC
:1045C8000000000020202020202020202020202063
:1045D8002020202000000000563A2D2D20202048C1
:1045E8003A2D2D20202000004D414E55414C20529F
:1045F8002D4700004D414E55414C20522D59000089
:104608004D414E55414C20472D5200004D414E55CD
:10461800414C20592D52000020202020202020200D
:1046280020202020202020200000000054494D4553
:104638003A253032647320202020202020000000FA
:1046480053455420524544005345542059454C0085
:104658005345542047524E0048656C6C6F20576F85
:10466800726C642100000000547261666669632000
:104678006C6967687400000000000000000000001A
:1046880001020304060708090000000001020304F0
:1046980002030405060708090A0B0C0D0E0F10107B
:1046A8000102232D302B2000686C4C00656667459D
:1046B8004647003031323334353637383941424392
:1046C8004445460030313233343536373839616243
:0846D800636465660000000048
:0446E000310100089C
:0446E4000D010008BC
:1046E80001000000010000000100000001000000BE
:1046F80001000000010000000100000001000000AE
:10470800010000000100000001000000010000009D
:10471800010000000100000001000000010000008D
:10472800190000001900000019000000190000001D
:10473800F4010000F4010000F4010000F40100009D
:10474800FFFFFFFFFFFFFFFF01000000FFFFFFFF6C
:104758000100000010270000B80B0000581B0000E3
:104768000100000000127A001000000001000000A3
:10477800940000200000000000000000000000007D
:104788000000000000000000000000000000000021
:104798000000000000000000000000000000000011
:1047A8000000000000000000000000000000000001
:1047B80000000000000000000000000000000000F1
:1047C80000000000000000000000000000000000E1
:0447D80000000000DD
:04000005080019F5E1
:00000001FF
